{
  "contractName": "Stake",
  "abi": [
    {
      "inputs": [],
      "stateMutability": "nonpayable",
      "type": "constructor"
    },
    {
      "inputs": [],
      "name": "synthetixResolver",
      "outputs": [
        {
          "internalType": "contract IAddressResolver",
          "name": "",
          "type": "address"
        }
      ],
      "stateMutability": "view",
      "type": "function"
    },
    {
      "inputs": [],
      "name": "synthetixIssue",
      "outputs": [],
      "stateMutability": "nonpayable",
      "type": "function"
    },
    {
      "inputs": [
        {
          "internalType": "address",
          "name": "user",
          "type": "address"
        }
      ],
      "name": "synthetixIssueOnBehalf",
      "outputs": [],
      "stateMutability": "nonpayable",
      "type": "function"
    }
  ],
  "bytecode": "0x608060405234801561001057600080fd5b50600080546001600160a01b03191673567357d7803161c1ed782e9395735621b7954dde179055610301806100466000396000f3fe608060405234801561001057600080fd5b50600436106100415760003560e01c8063153cd7161461004657806341693bb414610064578063cf5d06271461006e575b600080fd5b61004e610081565b60405161005b919061028a565b60405180910390f35b61006c610090565b005b61006c61007c36600461024b565b610167565b6000546001600160a01b031681565b600080546040516321f8a72160e01b81526001600160a01b03909116906321f8a721906100bf9060040161029e565b60206040518083038186803b1580156100d757600080fd5b505afa1580156100eb573d6000803e3d6000fd5b505050506040513d601f19601f8201168201806040525081019061010f919061026e565b9050806001600160a01b031663af086c7e6040518163ffffffff1660e01b8152600401600060405180830381600087803b15801561014c57600080fd5b505af1158015610160573d6000803e3d6000fd5b5050505050565b600080546040516321f8a72160e01b81526001600160a01b03909116906321f8a721906101969060040161029e565b60206040518083038186803b1580156101ae57600080fd5b505afa1580156101c2573d6000803e3d6000fd5b505050506040513d601f19601f820116820180604052508101906101e6919061026e565b60405163320223db60e01b81529091506001600160a01b0382169063320223db9061021590859060040161028a565b600060405180830381600087803b15801561022f57600080fd5b505af1158015610243573d6000803e3d6000fd5b505050505050565b60006020828403121561025c578081fd5b8135610267816102b3565b9392505050565b60006020828403121561027f578081fd5b8151610267816102b3565b6001600160a01b0391909116815260200190565b680a6f2dce8d0cae8d2f60bb1b815260200190565b6001600160a01b03811681146102c857600080fd5b5056fea2646970667358221220758568994444c5142b53fe13b8d064be960583f6be829300f985f3f50a5addf664736f6c63430008000033",
  "immutableReferences": {},
  "source": "pragma solidity >=0.4.21 <8.10.0;\r\n\r\nimport \"./Interfaces/IAddressResolver.sol\";\r\nimport \"./Interfaces/ISynthetix.sol\";\r\n\r\ncontract Stake {\r\n    IAddressResolver public synthetixResolver;\r\n\r\n    constructor() public {\r\n        synthetixResolver = IAddressResolver(\r\n            0x567357D7803161C1eD782e9395735621B7954dDE\r\n        );\r\n    }\r\n\r\n    function synthetixIssue() external {\r\n        ISynthetix synthetix = ISynthetix(\r\n            synthetixResolver.getAddress(\"Synthetix\")\r\n        );\r\n        synthetix.issueMaxSynths();\r\n    }\r\n\r\n    function synthetixIssueOnBehalf(address user) external {\r\n        ISynthetix synthetix = ISynthetix(\r\n            synthetixResolver.getAddress(\"Synthetix\")\r\n        );\r\n        synthetix.issueMaxSynthsOnBehalf(user);\r\n    }\r\n}\r\n",
  "sourcePath": "C:\\Users\\Harsh\\Desktop\\web3\\MercorProject\\contracts\\Stake.sol",
  "compiler": {
    "name": "solc",
    "version": "0.8.0+commit.c7dfd78e.Emscripten.clang"
  },
  "schemaVersion": "3.4.14",
  "updatedAt": "2023-07-02T13:18:58.964Z",
  "devdoc": {
    "kind": "dev",
    "methods": {},
    "version": 1
  },
  "userdoc": {
    "kind": "user",
    "methods": {},
    "version": 1
  }
}