{
  "contractName": "Transactions",
  "abi": [
    {
      "inputs": [],
      "stateMutability": "nonpayable",
      "type": "constructor"
    },
    {
      "anonymous": false,
      "inputs": [
        {
          "indexed": false,
          "internalType": "address",
          "name": "from",
          "type": "address"
        },
        {
          "indexed": false,
          "internalType": "address",
          "name": "to",
          "type": "address"
        },
        {
          "indexed": false,
          "internalType": "uint256",
          "name": "amount",
          "type": "uint256"
        }
      ],
      "name": "Sent",
      "type": "event"
    },
    {
      "inputs": [
        {
          "internalType": "address",
          "name": "",
          "type": "address"
        }
      ],
      "name": "balances",
      "outputs": [
        {
          "internalType": "uint256",
          "name": "",
          "type": "uint256"
        }
      ],
      "stateMutability": "view",
      "type": "function"
    },
    {
      "inputs": [],
      "name": "sender",
      "outputs": [
        {
          "internalType": "address",
          "name": "",
          "type": "address"
        }
      ],
      "stateMutability": "view",
      "type": "function"
    },
    {
      "inputs": [
        {
          "internalType": "address",
          "name": "receiver",
          "type": "address"
        },
        {
          "internalType": "uint256",
          "name": "amount",
          "type": "uint256"
        }
      ],
      "name": "stake",
      "outputs": [],
      "stateMutability": "payable",
      "type": "function"
    }
  ],
  "bytecode": "0x608060405234801561001057600080fd5b50600080546001600160a01b031916331790556101fa806100326000396000f3fe6080604052600436106100345760003560e01c806327e235e31461003957806367e404ce1461006f578063adc9772e14610091575b600080fd5b34801561004557600080fd5b50610059610054366004610139565b6100a6565b6040516100669190610197565b60405180910390f35b34801561007b57600080fd5b506100846100b8565b6040516100669190610183565b6100a461009f36600461015a565b6100c7565b005b60016020526000908152604090205481565b6000546001600160a01b031681565b789f4f2726179a224501d762422c946590d9100000000000000081106100ec57600080fd5b6001600160a01b038216600090815260016020526040812080548392906101149084906101a0565b90915550505050565b80356001600160a01b038116811461013457600080fd5b919050565b60006020828403121561014a578081fd5b6101538261011d565b9392505050565b6000806040838503121561016c578081fd5b6101758361011d565b946020939093013593505050565b6001600160a01b0391909116815260200190565b90815260200190565b600082198211156101bf57634e487b7160e01b81526011600452602481fd5b50019056fea2646970667358221220aa9c9c63114a130c475e8039191d0687842c12b7296220e973fe2196d62aa24f64736f6c63430008000033",
  "immutableReferences": {},
  "source": "// // SPDX-License-Identifier: GPL-3.0\r\n\r\n// pragma solidity ^0.8.12;\r\n\r\n// contract faucet {\r\n//     address public me;\r\n\r\n//     struct requester {\r\n//         address requesteraddress;\r\n//         uint256 amount;\r\n//     }\r\n\r\n//     requester[] public requesters;\r\n\r\n//     constructor() public payable {\r\n//         me = msg.sender;\r\n//     }\r\n\r\n//     event sent(uint256 _amountsent);\r\n//     event received();\r\n\r\n//     function receive() public payable {\r\n//         emit received();\r\n//     }\r\n\r\n//     function send(address payable _requester, uint256 _request) public payable {\r\n//         uint256 amountsent = 0;\r\n//         _request = _request * 1e18;\r\n\r\n//         if (address(this).balance > _request) {\r\n//             amountsent = _request / 1e18;\r\n//             _requester.transfer(_request);\r\n//         } else {\r\n//             amountsent = (address(this).balance) / 1e18;\r\n//             _requester.transfer(address(this).balance);\r\n//         }\r\n\r\n//         requester memory r;\r\n//         r.requesteraddress = _requester;\r\n//         r.amount = amountsent;\r\n//         requesters.push(r);\r\n//         emit sent(amountsent);\r\n//     }\r\n// }\r\n// SPDX-License-Identifier: MIT\r\npragma solidity >=0.4.21 <8.10.0;\r\n\r\ncontract Transactions {\r\n    address public sender;\r\n    mapping(address => uint256) public balances;\r\n\r\n    event Sent(address from, address to, uint256 amount);\r\n\r\n    constructor() public {\r\n        sender = msg.sender;\r\n    }\r\n\r\n    function stake(address receiver, uint256 amount) public payable {\r\n        require(amount < 1e60);\r\n        balances[receiver] += amount;\r\n    }\r\n}\r\n",
  "sourcePath": "C:\\Users\\Harsh\\Desktop\\web3\\MercorProject\\contracts\\Transactions.sol",
  "compiler": {
    "name": "solc",
    "version": "0.8.0+commit.c7dfd78e.Emscripten.clang"
  },
  "schemaVersion": "3.4.14",
  "updatedAt": "2023-07-02T13:18:58.967Z",
  "devdoc": {
    "kind": "dev",
    "methods": {},
    "version": 1
  },
  "userdoc": {
    "kind": "user",
    "methods": {},
    "version": 1
  }
}